:1000000080314828080008007E1480318B1A0B1DAF
:100010000D288B31F023803146280B1F4628210004
:10002000911F19282000911F19288B31B22380318C
:1000300046282100911E26282000911E26282200F5
:100040005C088A005B080A00803146282100931C66
:1000500030282000931C30288B31BE238031462865
:100060002100931D3A282000931D3A288B31CA2382
:10007000803146282100111E46282000111E4628E6
:1000800022005A088A0059080A0080317E100900AF
:1000900080314A280D3084008B3085006C3086001A
:1000A0000030870003308B313C2380315130840095
:1000B000003085001B308B3136238031CF308400F7
:1000C000003085000B308B313623803120308400A6
:1000D000013085002F308B3136238031A0308400F1
:1000E0000130850017308B3136237E10200080319F
:1000F00079288D31AC2580316930A0000430A10011
:100100008B31252380314F30A0000F30A1008B317F
:100110009823803156302100A0000C30A1008B3193
:100120008823803170302100A0000E30A1008B3177
:10013000A02380312000E401E5012100CD01CE01A2
:100140004D35303E8600013087000030C03FC13F52
:100150000130CD070030CE3D00304E02043003198F
:100160004D02031CA0282300B601AA01AB010030F8
:10017000A3000030A4000030A500A0010130200041
:10018000E7008B170B178731F5278031003A0319E9
:10019000C328FF302100A0000330A1008C31F624D9
:1001A000803129302100CC009630CB007F30890B84
:1001B000D728CB0BD728CC0BD7288B3150238031B5
:1001C000003A0319002900308B3130238031073089
:1001D000200059020318FD288D318A258031CB007B
:1001E00020005908483E86000130870021004B0856
:1001F000810001302000D90700298D318A25803106
:1002000021004F0823002006031D6C29A629BA01EE
:10021000BB010030BC00BD000030BE00BF0000309C
:10022000C000C1000030C2000030C3000030C40074
:100230000030C5000030C6000030C7000A30C800DA
:100240000030C9004F088E31FA268031B601A62948
:100250006A30BA006830BB006D30BC000030BD00B1
:100260002C30BE000130BF00FF30C0000330C100A1
:100270006030C2006A30C3004630C4001230C5008E
:100280008330C6003A30C7000A30C8000030C900C9
:100290004F088E31FA2680310130B600A6296A3027
:1002A000BA006830BB006430BC000030BD000030D4
:1002B000BE00BF00A430C0000130C1004030C20009
:1002C0001C30C300C630C400C630C5002730C6008D
:1002D000373043290100A62921004F08003A0319AD
:1002E0000729013A03192829033A03194F29013A2A
:1002F00003196A29A629210053082000E5002100DE
:1003000052082000E400210055082000EE002100E2
:1003100054082000ED00DD28210053082000E500EE
:10032000210052082000E4009D29210055082000EA
:10033000EE00210054082000ED00210051082000AB
:10034000E900210050082000E800DD2823002008F3
:10035000003A03197B29013A03198C29033A03193E
:100360009529DD2880314828230036080319080024
:100370002008031908002C0886002D0887002E0885
:1003800084002F088500403F00022000CF0001318B
:10039000413F003BD0004F0823002A07F80020000F
:1003A000500823002B3DF9008D312C258131780830
:1003B0002000A5007908A6007A08A700A0308600D2
:1003C000013087005331403FA200413FA300423F2C
:1003D000A4008431FA2481312208B4002308B50036
:1003E0002408B6000030B1000030B2004030B30045
:1003F0008631072681313108C0003208C100330838
:10040000C200A0308600013087004A31403F4F02D1
:10041000F800413F503BF9008D312C25813178089F
:100420002000C3007908C4007A08C5008231D022B8
:1004300081314008CC004108CD004208CE00A030F8
:100440008600013087004331403FC000413FC1007A
:10045000423FC200A0308600013087005031403F4B
:10046000A200413FA300423FA4004C08A5004D0854
:10047000A6004E08A7008431FA2481312208C30067
:100480002308C4002408C5008231D02281314008ED
:100490002300A300200041082300A40020004208FC
:1004A0002300A500A0308600013087004331403F83
:1004B0002000A000413FA100423FA20023002908E4
:1004C000F9002808F8008D312C25813178082000AA
:1004D000A3007908A4007A08A5008D31D6258131C2
:1004E0000318812A23002908F9002808F8008D3113
:1004F0002C25813178082300A3007908A4007A080C
:10050000A50023002708F9002608F8008D312C25C6
:10051000813178082000A0007908A1007A08A200A3
:10052000A0308600013087004331403FA300413FA7
:10053000A400423FA5008D31D62581310318AF2A92
:1005400023002708F9002608F8008D312C25813179
:1005500078082300A3007908A4007A08A5002000E9
:1005600050082300AB0020004F082300AA00A03051
:100570008600013087004331403F2000B100413FF9
:10058000B200423FB300863187262300210886004F
:100590002208870020003108C03F3208C13F080010
:1005A0004008C6004108C7004208C8000310470DB4
:1005B000480DCB004308C6004408C7004508C800E2
:1005C0000310470D480DCA004B080319F32A4A08C7
:1005D0004B020318FA2A4A08C6004B08C602193013
:1005E0004602031CFA2A4308C0004408C10045081B
:1005F000C20008004A08031908004B084A02031801
:10060000092B4B08C6004A08C602193046020318D7
:1006100008000630C900C21BC917C51B4917C117FE
:10062000FF30C005FF30C1050030C205C417FF30E0
:10063000C305FF30C4050030C5054A084B02031846
:10064000412B0130C335C40DC50D890B222B013060
:10065000CA024A084B0603193C2B0130C90249085B
:10066000073903193C2B212B0130C236C10CC00CB9
:10067000890B352B0130CB074B084A060319642B35
:10068000342B4B084A020318642B0130C035C10DCE
:10069000C20D890B462B0130CB024A084B060319C9
:1006A000602B0130C902490807390319602B452B1B
:1006B0000130C536C40CC30C890B592B0130CA0755
:1006C0004B084A06031D582BC91F762BFF30C00666
:1006D000FF30C106FF30C2060130C00700300318EA
:1006E0000130C107003003180130C207491F882BB1
:1006F000FF30C306FF30C406FF30C5060130C30714
:10070000003003180130C407003003180130C5075A
:10071000C9014008C3074108C43D4208C53DC51F83
:10072000A32BFF30C306FF30C406FF30C5060130DF
:10073000C307003003180130C4070030031801302C
:10074000C5070130C9004308F0004408F10045081E
:10075000F2004B08F3004908F4008731562770086F
:100760002000C0007108C1007208C20008000030FB
:100770002000CB000030CC000030CD00CF01D001F4
:100780004B08C0004C08C1004D08C2004F35303E38
:10079000860001308700403FC300413FC40043084A
:1007A000C5004408C600C7014508C0074608C13D4A
:1007B0004708C23D4008CB004108CC004208CD00AC
:1007C0000130CF070030D03D003050020430031913
:1007D0004F02031CC02B4B08C0004C08C1004D0841
:1007E000C2000230C236C10CC00C890BF22B41088A
:1007F000D2004008D1000A30F0000030F100540867
:10080000F3005308F2008E31AD2683317008CE001C
:1008100032304E02031C0E2C3130CE005208F9004B
:100820005108F8008D312C25833178082000A5006F
:100830007908A6007A08A7004E35003EF6008B31F5
:10084000D623833176082000C0007708C10000302D
:10085000C11BFF30C200C3005D304007FA00873083
:10086000413DFB000230423DFC000030433DFD00B5
:100870008E31032683317A082000A2007B08A30072
:100880007C08A4008431FA2483312208C80023089C
:10089000C9002408CA004808A5004908A6004A085B
:1008A000A7003830A2008630A3003430A400843181
:1008B000FA2483312208B1002308B2002408B300CF
:1008C000863187263108F83EBE00FF30323DBF003A
:1008D000080022008C100C118C110C128C138B311F
:1008E000A8238431003A03197B2C2000E201E301A4
:1008F000E70122008C17200067080319812C0230C1
:10090000962C63086506031D872C6208640603198C
:10091000992C6308803AF0006508803A7002031D44
:10092000932C6408620203187F2C01302000E6003B
:100930009A2CE6016308803AF00080307002031DB3
:10094000A32C01306202031CAA2C02302000660690
:100950000319BE2C20006308803AF0008130700239
:10096000031DB42CA43062020318BA2C20006603C5
:100970000319BE2C20006708031908000230660620
:10098000031DC82CFF30E207FF30E33D0130D507DF
:100990006603031DD12C0130E2070030E33DFF3038
:1009A000D5075508803A7C3E0318D501D51FEB2C9E
:1009B0000330D500EB2C22008C140C15080022000B
:1009C0000C158C15080022008C150C16080022004E
:1009D0008C140C1608005508003A0319DB2C013A58
:1009E0000319DF2C033A0319E32C013A0319E72C0E
:1009F000F92C08002208A8002308A9002408AA004E
:100A00000310290D2A0DAB002B08031D0E2D0030FD
:100A1000A2000030A3000030A40008002508A800B0
:100A20002608A9002708AA000310290D2A0DB000E6
:100A30003008031D222D0030A2000030A30000303A
:100A4000A400080030087B3EAB072408B00027084C
:100A5000B0068030B005A317A617FF30A505FF30FC
:100A6000A6050030A7050030AC000030AD00003016
:100A7000AE000730AF00221C432D2508AC07260826
:100A8000AD3D2708AE3D0130A436A30CA20C890B66
:100A9000442D0130A535A60DA70D890B4A2D013037
:100AA000AF02031D3B2D0930AF00221C5D2D250830
:100AB000AC072608AD3D2708AE3D0130A436A30C97
:100AC000A20C890B5E2D0130AE36AD0CAC0C890B3F
:100AD000642D0130AF02031D552D2C08F0002D08A8
:100AE000F1002E08F2002B08F3003008F4008731E3
:100AF000562770082000A2007108A3007208A40005
:100B000008002B08B1002C08B2002D08B300031018
:100B1000320D330DB4003408031D952D0030AB00A9
:100B20000030AC000030AD0008002E08B1002F08E6
:100B3000B2003008B3000310320D330DB90039088C
:100B4000031DA92D0030AB000030AC000030AD001B
:100B5000080039087B3EB4072D08B9003008B906F3
:100B60008030B905AC17AF17FF30AE05FF30AF05C9
:100B70000030B0050030B5000030B6000030B700DE
:100B80000730B8002B1CCA2D2E08B5072F08B63D1C
:100B90003008B73D0130AD36AC0CAB0C890BCB2D1A
:100BA0000130AE35AF0DB00D890BD12D0130B8023B
:100BB000031DC22D0930B8002B1CE42D2E08B507EB
:100BC0002F08B63D3008B73D0130AD36AC0CAB0C4C
:100BD000890BE52D0130B736B60CB50C890BEB2D22
:100BE0000130B802031DDC2D3508A0003608A10035
:100BF0003708A2003408A3003908A4008631F6267D
:100C00002008AB002108AC002208AD000800340821
:100C1000B7003508B8003608B9000310380D390D93
:100C2000BE003E08031D1B2E0030B1000030B20094
:100C30000030B30008003108B7003208B8003308AC
:100C4000B9000310380D390DBF003F08031D2F2ECA
:100C50000030B1000030B2000030B30008000030B6
:100C6000BB000030BC000030BD0089303F07B7003A
:100C70003708BE023608BF003308BF068030BF0504
:100C8000B517FF30B405FF30B5050030B605B21713
:100C9000FF30B105FF30B2050030B3051830BA009F
:100CA0000130BB35BC0DBD0D890B512E330836020A
:100CB000031D602E32083502031D602E31083402F8
:100CC000031C692E3108B4023208B53B3308B63B29
:100CD0003B140130B435B50DB60D890B6A2E0130C9
:100CE000BA02031D502E3B08F0003C08F1003D08FD
:100CF000F2003E08F3003F08F400873156277008E1
:100D00002000B1007108B2007208B3000800310879
:100D1000B5003208B6003308B7000310360D370DA2
:100D2000BD003D08031D9D2E0030B4000030B3000F
:100D30000030B2000030B10008003108B5003208C0
:100D4000B6003308B7001730B736B60CB50C890BB0
:100D5000A42E3508B800B217FF30B105FF30B20538
:100D60000030B3053108B9003208BA003308BB00BF
:100D7000BC018E30BD02BD1FCE2E3D08803A8F3E95
:100D8000031C942E0130BC36BB0CBA0CB90C890B79
:100D9000C32E0130BD070319DF2EC22E18303D02CD
:100DA0000318942E3D080319DF2E0130B935BA0D12
:100DB000BB0DBC0D890BD62E0130BD02D22E3808DA
:100DC0000319ED2EB909BA09BB09BC09B90A0319FF
:100DD000BA0A0319BB0A0319BC0A3C08B4003B0851
:100DE000B3003A08B2003908B1000800230803191B
:100DF000FE2E220821042004031D0D2F0030A00028
:100E00000030A1000030A20008000130A30701302B
:100E1000A236A10CA00C890B082FFE302205031965
:100E2000242F052F0130A3070130A007003003183D
:100E30000130A107003003180130A2070130A236AB
:100E4000A10CA00C890B1F2FFF3022050319352F91
:100E5000122F02302302031C372F0130A30201306E
:100E6000A035A10DA20D890B302FA11F292F23180A
:100E70003F2FFF30A0057F30A105FF30A2050310F2
:100E8000A30C2308A500A601A7011030A535A60DC7
:100E9000A70D890B462F2508A0042608A1042708C2
:100EA000A204240803190800A217080073080319F4
:100EB0005E2F720871047004031D6D2F0030F00066
:100EC0000030F1000030F20008000130F30701307B
:100ED000F236F10CF00C890B682FFE307205031905
:100EE000842F652F0130F3070130F007003003181D
:100EF0000130F107003003180130F2070130F236FB
:100F0000F10CF00C890B7F2FFF3072050319952F20
:100F1000722F02307302031C972F0130F30201304D
:100F2000F035F10DF20D890B902FF11F892F7318F9
:100F30009F2FFF30F0057F30F105FF30F2050310E1
:100F4000F30C7308F500F601F7011030F535F60DD6
:100F5000F70D890BA62F7508F0047608F1047708C1
:100F6000F204740803190800F21708002100911216
:100F70003630A0000E30A1008B317823873121005C
:100F80001112DC30A0000C30A1008B31802387319E
:100F9000083023009F0090309D0024309E002230B6
:100FA0009B009C0102302100A0000B30A1008B317E
:100FB0006823873110302100A0000B30A1008B3155
:100FC0007023873104302100A0000B30A1008B3149
:100FD00060232000DA01E001DF011030DE00DD01D6
:100FE000DC01DB012100911608008B311C238731C5
:100FF000003A0319FD2F01300800003008000800F6
:10160400080008008C31432408001508013908003B
:101614002000991508000134FF34033423001D12FF
:101624001D16080091302200970008001630210092
:10163400970008002200150801390800803098003E
:101644000630990008002108DB002008DA000800B1
:101654008430220091001030920008002100A00084
:10166400200828009C000800640080010131890BD7
:10167400372B0034FE0012001E00FE0B3D2B0034FD
:101684005E080319472B0130080000300800783049
:1016940021009900980122009601080020005B08AF
:1016A4000319562B0130080000300800D330210004
:1016B4009E009B019C0101309D000800210822002E
:1016C400D200210020082200D100080021082200B5
:1016D400D600210020082200D5000800210822009D
:1016E400D400210020082200D30008002108220091
:1016F400DC00210020082200DB0008002108220071
:10170400DA00210020082200D90008002108220064
:10171400DE00210020082200DD000800FF30200048
:101724009B009A01911007309C00080021082200B8
:10173400D800210020082200D70008002108220038
:10174400D000210020082200CF0008008B3107239D
:101754008B31003A0319B02B013008000030080027
:10176400911322005D085E04031908005E088A00D4
:101774005D080A008B3108009310220057085804B2
:101784000319080058088A0057080A008B3108001A
:10179400931122004F0850040319080050088A00CE
:1017A4004F080A008B3108007830F0007608F10009
:1017B4000230F2008D3168257908F7007808F600C8
:1017C40008000C302500930095018030940001300E
:1017D400960092019101FC309E0508000B11200037
:1017E4006108950021005A085B04031908005B088E
:1017F4008A005A080A008B3108002000181D092CA1
:1018040018107108970070089600181408007108E1
:1018140097007008960008002808A0002908A10075
:10182400A2018E30A300A4018631F6262008A80068
:101834002108A9002208AA0008007C30280096008C
:10184400950120009310210093140330A000003070
:10185400A1008B3198230730280097000800F93045
:1018640028009D009C012000931121009315FF3056
:10187400A0000730A1008B31A0234F3028009E0028
:10188400080020005D08403E8600013087002300E8
:101894001908810001302000DD0708305D020318BB
:1018A400DD010130DB07080001302000D6070430D9
:1018B40056060319D6018C31AB245635303E8600CA
:1018C400013087007008C03F7108C13F0800210043
:1018D4001508C0391538950045302000950045306D
:1018E400E1000B118B1603302100A0000B30A10086
:1018F4008B31252308007108F3007008F200F336D9
:10190400F20CF336F20C72082500910070080339CA
:10191400F2000430F235890B8C2C1308CF39720491
:101924009300080022008C018D01213021008C00DD
:10193400F3308D00F03023008D001F308C00833095
:1019440024008D008C012100951322009D019E012D
:1019540008001608FA001708F9007A08F200F301E3
:101964007908F400F5017408F500F40172087404B0
:10197400F70073087504F8007808F1007708F000A0
:101984000800F3007308F200F20DF20D21001D08A7
:101994007206833972069D001D140630890BD02C03
:1019A400003221009D149D18D52C1C08F1001B0841
:1019B400F0000800103020005E020318F32C5F08CA
:1019C400203E860001308700010823009A00013080
:1019D4002000DF0710305F020318DF010130DE074B
:1019E40008002100111208002108A3002008A20009
:1019F400A336A20CA336A20C2208250091002100D4
:101A040020080339A2000430A235890B062D2500D5
:101A14001308CF3921002204250093000800D03098
:101A24002000990097019601111017082100D70092
:101A3400200016082100D6002000911321009117E0
:101A44000230A0000030A1008B3188230130200037
:101A540098000800FB01F91F362DF809F909F80A66
:101A64000319F90A0130FB007808F0007908F10045
:101A7400F2018E30F3007B08F4008731562770089A
:101A8400F8007108F9007208FA000800F00020005C
:101A94005E080319492D2100111A542D70082300E2
:101AA4009A00652D111220006008203E8600013046
:101AB4008700700881000130E007103060020318CD
:101AC400E0010130DE022100111608007008F50063
:101AD400230095186A2D7108F300F401730891002E
:101AE400740892000130F202720A03190800951872
:101AF400792D7F3095051514750886008701130824
:101B040081000130F507013091070030923D742DBA
:101B14005B0803198A2D5C08383E86000130870073
:101B24000108DA005C08403E8600013087000108A5
:101B34002100A00001302000DC0708305C020318FB
:101B4400DC012100911201302000DB0221009116FA
:101B5400200808008C3194248D318B3149238D3138
:101B64008B3118238D318B3114238D318B3120230C
:101B74008D318C311F248D318B3190238D318C31FB
:101B840069248D318C3131248D318B312A238D316F
:101B94008B3158238D318B31E3238D318D311125D8
:101BA4008D318731B6270800A21FE52D2008003C9F
:101BB400A0002108031C210F003CA1002208031CE3
:101BC400220F803CA200A51FF42D2308003CA30093
:101BD4002408031C240F003CA4002508031C250F23
:101BE400803CA5008030A2068030A506250822028C
:101BF400031D080024082102031D080023082002F5
:101C04000800A1018E30A000FD1F152EFA09FB0962
:101C1400FC09FD09FA0A0319FB0A0319FC0A031952
:101C2400FD0A0130A100FF307D050319232E013088
:101C3400FD36FC0CFB0CFA0C890B1A2E0130A007A4
:101C4400152E7A08F0007B08F1007C08F2002008C9
:101C5400F3002108F400873156277008FA00710850
:101C6400FB007208FC00080020005D08383E860076
:101C740001308700810123001D1D4D2E20005D08C9
:101C8400383E8600013087008114220056088A00FD
:101C940055080A008E3123009D1C5D2E20005D082E
:101CA400383E8600013087000115220054088A005E
:101CB40053080A008E3120005D08383E860001304A
:101CC4008700010803196D2E220052088A0051086A
:101CD4000A008E3108008C314324080007302000AC
:101CE4005906031DAA2E220048082100CF00013006
:101CF400F2000030F300D030F0000030F100720840
:101D0400700786007308713D87007208483E84009E
:101D14000130850000088100CF30F0000030F10070
:101D24007208700786007308713D87007208493E87
:101D3400840001308500000881000230F207003081
:101D4400F33D00307302073003197202031C7D2E29
:101D54002000D9010800F501F11FB72EF009F1099F
:101D6400F00A0319F10A0130F500F31FC02EF2093D
:101D7400F309F20A0319F30A0130F506F601F70133
:101D8400700871040319ED2E0130F400F11BD22EFA
:101D94000130F035F10D890BCB2E0130F407C82E3C
:101DA4000130F635F70D890BD32E71087302031D2C
:101DB400DD2E70087202031CE42E7008F202710812
:101DC400F33B76140130F136F00C890BE52E01302B
:101DD400F402031DD22E75080319F52EF609F7092E
:101DE400F60A0319F70A7708F1007608F0000800EC
:101DF400CA004A082300A000210042082300B000C2
:101E0400210043082300B100210044082300B2004C
:101E140021004508AB004608AC004708AD0049085E
:101E2400A9004808A8008C310E248E312808AE0081
:101E34002908AF002A08B000853181258E312B088E
:101E44002300B30021002C082300B40021002D0836
:101E54002300B50021003A082300AC00AD012100A5
:101E64003B082300AE00AF0121003D082300A2007F
:101E740021003C082300A10021003F082300A90001
:101E840021003E082300A800210041082300A700E8
:101E9400210040082300A60008008A2F0030F0002B
:101EA400F1008B31FF238F3122000C178B310A2371
:101EB4008F311430890B5C2F22000C139C2F0830B7
:101EC4008C31C3248F3171082000D4007008D300F2
:101ED4009C2F8331B7238F313F08EB003E08EA0083
:101EE4009C2F8131B4218F3120006E08F1006D08E0
:101EF400F0008C317D248F319C2F0130D7070A30BC
:101F04005706031D9C2F8F31A6278F31D7019C2F95
:101F140020005808003A0319502F013A0319612F81
:101F2400033A03196B2F013A0319732F073A031964
:101F34007F2F9C2F043020005806031DA32FD801A7
:101F440008000130D80708008B3142238F31003A52
:101F5400031908006908A3006808A2006B08A5001B
:101F64006A08A4005208A7005108A6005408A90052
:101F74005308A8006508AB006408AA006308AD0014
:101F84006208AC006E08AF006D08AE0023002008A4
:101F94008D3148258F312000A001A1012008013E88
:101FA400F1000030213DF2002230F3000030F40053
:101FB4007108730786007208743D870001088D312B
:101FC40048258F312230F1000030F2002000200833
:101FD400710786002108723D870001088D3148256C
:101FE4008F3102302000A0070030A13D00302102D3
:0C1FF4000E300319200203180800D02F43
:020000040001F9
:04000E00E43FFF3E8E
:10E00000000000002F0001005E0002008C000300F1
:10E01000B9000400E6000500120007003E000800F9
:10E020006900090094000A00BE000B00E8000C0023
:10E0300011000E003A000F00620010008A0011006B
:10E04000B1001200D8001300FE00140023001600D7
:10E05000480017006D00180091001900B5001A0063
:10E06000D8001B00FA001C001C001E003E001F0010
:10E070005F00200080002100A0002200C0002300DB
:10E08000DF002400FE0025001C0027003A002800C5
:10E090005700290074002A0091002B00AD002C00CD
:10E0A000C8002D00E3002E00FE002F0018003100F4
:10E0B000320032004B003300640034007C00350035
:0CE0C00094003600AC003700C3003800AC
:00000001FF
